:100000000C944A000C9467000C9467000C946700F1
:100010000C9467000C9467000C9467000C946700C4
:100020000C9467000C9467000C9467000C943B08D8
:100030000C9467000C9467000C9467000C946700A4
:100040000C9467000C9467000C9467000C94670094
:100050000C946700001F000000001F00001F10101C
:1000600010101F00001F181818181F00001F1C1C5C
:100070001C1C1F00001F1E1E1E1E1F00001F1F1F16
:100080001F1F1F0003070F1F0F070300181C1E1F51
:100090001E1C180011241FBECFE5D4E0DEBFCDBF6B
:1000A00011E0A0E6B0E0ECEBF8E102C005900D92A3
:1000B000AE3BB107D9F713E0AEEBB1E001C01D9242
:1000C000A03DB107E1F70E9476000C945C0C0C9403
:1000D000000087B9369A349BFECF349A24B135B1EB
:1000E000C901089517B885E886B90895DF92EF929F
:1000F000FF920F931F93DF93CF93CDB7DEB7649733
:100100000FB6F894DEBF0FBECDBF19821A821B82D4
:100110001C82FE01359680E1DF011D928A95E9F788
:100120000E9444070E94DD0680E895E20E94730861
:100130000E949B0878940E9432060E94DD0681E0AE
:1001400090E00E948A0280E395E724E630E0F9011E
:100150003197F1F70197D9F70E9472000E94440786
:100160000E94DD0680E090E00E94690000D000D08F
:1001700000D0EDB7FEB731968E010F5F1F4FADB7C0
:10018000BEB712961C930E93119720E630E033838E
:100190002283958384830E9484098DB79EB7069637
:1001A0000FB6F8949EBF0FBE8DBF80E060E00E9446
:1001B000FA06C8010E94300884E6E82EF12CD02E01
:1001C000012F8091BE019091BF01019711F50E940E
:1001D000660482EC91E067E670E04AE050E00E943D
:1001E0005C09009771F783ED91E062E770E00E948F
:1001F00045090E942B0280E29EE4F7013197F1F756
:100200000197D9F786E790E06D2D702F0E94A40426
:10021000D8CF88EE93E0F7013197F1F70197D9F73E
:10022000D0CFCF92DF92EF92FF920F931F93CF9395
:10023000DF93C0E0D0E009E113E094E8C92E90E03C
:10024000D92E81E8E82E80E0F82E3EC02097C1F438
:1002500000D000D000D0EDB7FEB73196ADB7BEB735
:1002600012961C930E931197F382E282809183027F
:10027000848315820E9484098DB79EB706961EC09E
:10028000ADB7BEB718970FB6F894BEBF0FBEADBFDF
:10029000EDB7FEB7319612961C930E931197D38249
:1002A000C28215830483DE01AD57BD4F8C918683D6
:1002B00017820E9484098DB79EB708960FB6F894EE
:1002C0009EBF0FBE8DBF21968091AF039091B0036A
:1002D000C817D9070CF4BACFDF91CF911F910F91B6
:1002E000FF90EF90DF90CF9008956F927F928F9262
:1002F0009F92AF92BF92CF92DF92EF92FF920F93B5
:100300001F93CF93DF93EE24FF2400E010E0C0E0C2
:10031000D0E059E1652E53E0752E42ECC42E41E049
:10032000D42E34E8832E30E0932E21E8A22E20E054
:10033000B22E4DC0F801E75EFC4F8081823231F46D
:100340000894E11CF11CC0E0D0E03FC021E0E216BF
:10035000F104D9F5C330D105B9F400D000D000D0F4
:10036000EDB7FEB73196ADB7BEB71296DC92CE921E
:100370001197B382A282848315820E9484092DB7CB
:100380003EB72A5F3F4F1BC0ADB7BEB718970FB639
:10039000F894BEBF0FBEADBFEDB7FEB73196129653
:1003A000DC92CE92119793828282D582C482868318
:1003B00017820E9484092DB73EB7285F3F4F0FB6C2
:1003C000F8943EBF0FBE2DBF21960F5F1F4FF30164
:1003D00001900020E9F73197E951F3400E171F070C
:1003E00008F4A8CFDF91CF911F910F91FF90EF906C
:1003F000DF90CF90BF90AF909F908F907F906F9045
:10040000089589E193E069E870E00E946A09009725
:1004100019F420E030E01DC00E94750180E060E02A
:100420000E94FA0682EC91E00E94300880E061E0D0
:100430000E94FA068EE890E00E94300880E197E280
:1004400024E630E0F9013197F1F70197D9F721E07F
:1004500030E0C901089580E061E00E94FA0683ED72
:1004600091E060E10E94E50600D000D000D0EDB739
:10047000FEB7319683E892E0ADB7BEB712969C9373
:100480008E93119781E890E09383828382E090E0DD
:10049000958384830E9484091092B0031092AF0365
:1004A0008DB79EB706960FB6F8949EBF0FBE8DBF50
:1004B00083ED91E00E94AE0888EE93E024E630E000
:1004C000F9013197F1F70197D9F78DE00E94A5085E
:1004D000089500D000D000D0EDB7FEB7319623EDDF
:1004E00031E0ADB7BEB712963C932E93119727E932
:1004F00030E033832283958384830E9484098DB7FF
:100500009EB706960FB6F8949EBF0FBE8DBF0E9491
:100510002B02089500D000D000D0EDB7FEB7319681
:1005200023ED31E0ADB7BEB712963C932E931197F1
:1005300021EA30E033832283958384830E948409F7
:100540008DB79EB706960FB6F8949EBF0FBE8DBFAF
:100550000E942B0280E197E224E630E0F901319716
:10056000F1F70197D9F789E193E063E872E00E941F
:10057000450989E193E06CEA70E00E946A090097FE
:1005800019F420E030E00AC080E063E00E94FA063F
:100590008FEA90E00E94300821E030E0C901089520
:1005A0002F923F924F925F926F927F928F929F9283
:1005B000AF92BF92CF92DF92EF92FF920F931F9371
:1005C000CF93DF931C0100D000D000D0EDB7FEB771
:1005D000319683ED91E0ADB7BEB712969C938E93A2
:1005E00011978BEB90E093838283358224820E9463
:1005F00084092DB73EB72A5F3F4F0FB6F8943EBF30
:100600000FBE2DBF0E942B021092BF011092BE019F
:100610000EC083E792E066EC70E00E94450980E03E
:1006200060E00E94FA0683E792E00E943008809121
:10063000BE019091BF01892B61F380E197E224E62E
:1006400030E0F9013197F1F70197D9F71092BF0126
:100650001092BE0189E193E063E872E00E944509CF
:1006600000E010E0EE24FF24C0E0D0E04424552454
:10067000A1EBCA2EA3E0DA2EF4E86F2EF0E07F2E75
:10068000E1E88E2EE0E09E2E73ECA72E73E0B72EED
:1006900083C0F701E75EFC4F8081823229F40F5F4F
:1006A0001F4FC0E0D0E075C006301105B9F1083029
:1006B000110541F10330110509F06BC0C330D105BC
:1006C00069F400D000D000D0EDB7FEB73196ADB7D9
:1006D000BEB71296BC92AE9211972FC0ADB7BEB7FF
:1006E00018970FB6F894BEBF0FBEADBFEDB7FEB7FB
:1006F00031961296BC92AE92119773826282B58245
:10070000A48239C0C330D10534F08D3021F461E0CA
:10071000462E512C3EC041145104D9F5C230D105AA
:10072000B9F400D000D000D0EDB7FEB73196ADB728
:10073000BEB71296DC92CE92119793828282848306
:1007400015820E9484092DB73EB72A5F3F4F1BC018
:10075000ADB7BEB718970FB6F894BEBF0FBEADBF0A
:10076000EDB7FEB731961296DC92CE921197738256
:100770006282D582C482868317820E9484092DB743
:100780003EB7285F3F4F0FB6F8943EBF0FBE2DBF58
:1007900021960894E11CF11CE9E1F3E001900020AE
:1007A000E9F73197E951F340EE16FF0608F471CFEF
:1007B000C1010E948A020E94DD0680E061E00E9481
:1007C000FA0683EC93E00E94300880E062E00E9429
:1007D000FA06E0E0F0E081EB93E0459710F0E1E00D
:1007E000F0E08081882331F081EB93E064E10E94A6
:1007F000E50604C081EB93E00E9430081092BF012F
:100800001092BE01DF91CF911F910F91FF90EF9059
:10081000DF90CF90BF90AF909F908F907F906F9020
:100820005F904F903F902F90089589E193E067ED9E
:1008300070E00E946A09009719F420E030E044C09B
:1008400080E061E00E94FA068EED90E00E943008A0
:1008500080E197E224E630E0F9013197F1F7019762
:10086000D9F781E090E00E94D00281E090E00E9400
:100870008A0280E060E00E94FA0681EB93E060E18A
:100880000E94E50680E061E00E94FA0683EC93E0B6
:100890000E94300881EB93E066EE70E042E050E0A9
:1008A0000E945C09009719F48FEF88BB0BC081EBA5
:1008B00093E069EE70E043E050E00E945C0900972D
:1008C00009F418BA21E030E0C901089588E893E1FD
:1008D00024E630E0F9013197F1F70197D9F710924A
:1008E000BF011092BE0189E193E063E872E00E94CB
:1008F00045090E941504892B11F40E9401021092EF
:10090000B0031092AF0300D000D000D0EDB7FEB717
:10091000319683E892E0ADB7BEB712969C938E9362
:10092000119781E890E09383828380E390E0958340
:1009300084830E9484098DB79EB706960FB6F894FB
:100940009EBF0FBE8DBF08950F931F93CF93DF936C
:100950008C01EB0183ED91E06DEE70E00E944509A2
:1009600083ED91E0B8014AE050E00E944C0983ED2C
:1009700091E06AEF70E00E942F090E942B0288E844
:1009800093E124E630E0F9013197F1F70197D9F7C7
:1009900000D000D009E113E0EDB7FEB71283018368
:1009A00083E892E0948383830E9484090F900F90E0
:1009B0000F900F90C8016EE370E00E943A09009713
:1009C000B9F083ED91E0BE010E9445090E942B021F
:1009D00088EE93E024E630E0F9013197F1F70197D2
:1009E000D9F78AE10E94A5081092BF011092BE01BA
:1009F0001092B0031092AF030EC083E792E06CEF49
:100A000070E00E94450980E060E00E94FA0683E7FA
:100A100092E00E9430088091BE019091BF01892B25
:100A200061F31092BF011092BE0188E893E124E6C1
:100A300030E0F9013197F1F70197D9F700D000D0F4
:100A400009E113E0EDB7FEB71283018383E892E07A
:100A5000948383830E9484090F900F900F900F90CE
:100A6000C8016DE071E00E946A099C01009711F0D5
:100A700021E030E0C901DF91CF911F910F910895DE
:100A800083ED91E065E171E00E9445090E942B022F
:100A900088EE93E024E630E0F9013197F1F7019711
:100AA000D9F789E193E063E872E00E94450989E1A2
:100AB00093E06CEA70E00E946A099C01009711F0D3
:100AC00021E030E0C901089583ED91E06FE171E02C
:100AD0000E9445090E942B0288E893E124E630E059
:100AE000F9013197F1F70197D9F789E193E063E8CC
:100AF00072E00E94450980E061E00E94FA0689E107
:100B000093E060E10E94E506809122032091210399
:100B10009AE0299F90011124280F311D235732405C
:100B200029F41092C2031092C10306C081E090E044
:100B30009093C2038093C1038091C1039091C2033B
:100B4000089583ED91E066E271E00E9445090E94FC
:100B50002B0288E893E124E630E0F9013197F1F7C0
:100B60000197D9F789E193E063E872E00E944509B3
:100B700089E193E06EE271E00E946A0940E050E092
:100B8000009711F441E050E0CA01089583ED91E02F
:100B90006AE371E00E9445090E942B0288EE93E00F
:100BA00024E630E0F9013197F1F70197D9F789E1AF
:100BB00093E063E872E00E94450989E193E06CEA02
:100BC00070E00E946A099C01009711F021E030E07A
:100BD000C901089583ED91E06FE371E00E9445093A
:100BE0000E942B0288EE93E024E630E0F901319771
:100BF000F1F70197D9F789E193E063E872E00E9489
:100C0000450989E193E06CEA70E00E946A099C0161
:100C1000009711F021E030E0C90108951092B0036F
:100C20001092AF0383ED91E064E471E00E94450906
:100C30000E942B0288EE93E024E630E0F901319720
:100C4000F1F70197D9F70E94110189E193E06CEA6D
:100C500070E00E946A099C01009711F021E030E0E9
:100C6000C90108950EC083E792E067E471E00E9435
:100C7000450980E060E00E94FA0683E792E00E9466
:100C800030080E940E06892B71F30E94DD0683E76F
:100C900092E068E571E004C083E792E069E671E004
:100CA0000E94450980E060E00E94FA0683E792E036
:100CB0000E9430080E94C605892B71F30E94DD0650
:100CC0000EC083E792E06AE771E00E94450980E088
:100CD00060E00E94FA0683E792E00E9430080E94DA
:100CE000A105892B71F30E94DD0683E792E06BE892
:100CF00071E004C083E792E06CE971E00E9445096D
:100D000080E060E00E94FA0683E792E00E943008EB
:100D10000E946405892B71F30E9440050E94DD0644
:100D200080E060E00E94FA0683E792E06DEA71E0FD
:100D30000E94450983E792E00E9430080895282F19
:100D4000207F25BBA89AAA9A28EE33E0F9013197B3
:100D5000F1F7AA98A898F9013197F1F790E044E0EB
:100D6000880F991F4A95E1F785BBA89AAA9AC901ED
:100D70000197F1F7AA98A898C9010197F1F708958A
:100D8000282F207F25BBAA9A28EE33E0F90131975E
:100D9000F1F7AA98F9013197F1F790E054E0880F44
:100DA000991F5A95E1F785BBAA9AC9010197F1F7F6
:100DB000AA98C9010197F1F7089581E00E94C00641
:100DC000089582E00E94C00608950F931F93CF9369
:100DD000DF93062F009749F0EC0110E004C08991E1
:100DE0000E949F061F5F1017D0F3DF91CF911F91D4
:100DF0000F910895623031F0633031F0613029F4A1
:100E0000805C03C08C5E01C08C5A80680E94C00662
:100E100008951F93CF93DF93EC01862F642F0E94D8
:100E2000FA0610E003C00E949F061F5FFE01E10F5B
:100E3000F11D84918823B9F7DF91CF911F91089517
:100E4000EF92FF920F931F93CF93DF937C01162FA6
:100E5000110F110F110F1064C0E0D0E0F701EC0F7B
:100E6000FD1F0491812F8C0F0E94C006802F0E94CD
:100E70009F062196C830D10589F7DF91CF911F9148
:100E80000F91FF90EF9008951F93CF93DF9388E920
:100E90009AE30197F1F715BA15BA84B3806F84BB52
:100EA00084B3876084BB80E385BBAA9A28EE33E0D5
:100EB000F9013197F1F7AA98F9013197F1F785BB5C
:100EC000AA9AC9010197F1F7AA98C9010197F1F708
:100ED00080E285BBAA9AC9010197F1F7AA98C901D6
:100EE0000197F1F788E20E94C0068CE00E94C006DC
:100EF000C4E5D0E060E0162F1F5FCE010E942007FE
:100F00002896612F1830B9F7DF91CF911F9108957E
:100F10000F931F93CF93DF93C0E0D0E0082F10E032
:100F200004C08EE10E94C0062196C017D107CCF301
:100F3000DF91CF911F910F9108950F931F93CF933E
:100F4000DF93C0E0D0E0082F10E004C088E10E94E9
:100F5000C0062196C017D107CCF3DF91CF911F9126
:100F60000F9108958EE00E94C00608958FE00E94C0
:100F7000C00608958CE00E94C006089588E00E9493
:100F8000C00608958CE00E94C00608950F931F9339
:100F9000CF93DF93C0E0D0E0082F10E004C080E1E1
:100FA0000E94C0062196C017D107CCF3DF91CF91E4
:100FB0001F910F9108950F931F93CF93DF93C0E07C
:100FC000D0E0082F10E004C084E10E94C006219602
:100FD000C017D107CCF3DF91CF911F910F910895E6
:100FE000DF92EF92FF920F931F93CF93DF93D42E54
:100FF00096E0899FC0011124242F30E0AC01429F6C
:10100000C001439F900D529F900D112470E00E94EB
:10101000DF08EB01CB0166E070E00E94CB08E82E10
:10102000FF2400E010E012C0C8010596C817D907D8
:1010300010F085E006C0C017D10710F08E2D01C05A
:1010400080E00E949F06F3940A5F1F4FFD1460F337
:10105000DF91CF911F910F91FF90EF90DF90089556
:10106000DC010D900020E9F71197A81BB90B6A2F3E
:101070000E94E50608951F920F920FB60F92112459
:101080002F933F938F939F93EF93FF938CB1209176
:10109000AF033091B003F901ED57FD4F80832F5F0F
:1010A0003F4F3093B0032093AF032639310554F0FE
:1010B0001092B0031092AF0381E090E09093D201C0
:1010C0008093D10181E090E09093BF018093BE01B5
:1010D000FF91EF919F918F913F912F910F900FBEB4
:1010E0000F901F9018959C01442737FD4095542F71
:1010F00060E970ED83E090E00E94F208C901DA0136
:101100000197A109B109292F3A2F4B2F552747FDE8
:101110005A950196A11DB11D20BD815089B980B598
:10112000866880BD8AB188618AB9089553985498B9
:101130000895569A0895579A0895559A089556987D
:10114000089557980895559808955D9B02C08CB9ED
:101150000895FFCF5F9BFECF8CB10895DC010D9009
:101160000020E9F71197A81BB90B20E030E040E11F
:1011700057E20CC0FC01E20FF31FE0815D9B0AC047
:10118000ECB9FA013197F1F72F5F3F4F2A173B0770
:1011900088F30895FFCFAA1BBB1B51E107C0AA1F0C
:1011A000BB1FA617B70710F0A61BB70B881F991F08
:1011B0005A95A9F780959095BC01CD01089597FBAC
:1011C000092E07260AD077FD04D0E5DF06D00020DF
:1011D0001AF4709561957F4F0895F6F79095819573
:1011E0009F4F089597FB092E05260ED057FD04D07A
:1011F00014D00AD0001C38F45095409530952195B4
:101200003F4F4F4F5F4F0895F6F79095809570953B
:1012100061957F4F8F4F9F4F0895A1E21A2EAA1B11
:10122000BB1BFD010DC0AA1FBB1FEE1FFF1FA21796
:10123000B307E407F50720F0A21BB30BE40BF50B93
:10124000661F771F881F991F1A9469F7609570951C
:10125000809590959B01AC01BD01CF010895FB01E4
:10126000DC010D900020E9F7119701900D9200200C
:10127000E1F70895FC018191861721F08823D9F7C1
:10128000992708953197CF010895FB01DC01019062
:101290000D920020E1F70895FB01DC010D90002084
:1012A000E9F711974150504028F0019000200D922D
:1012B000C9F708951C920895FB01DC01415050408C
:1012C00030F08D910190801919F40020B9F7881B36
:1012D000990B0895FB0151915523A9F0BF01DC0141
:1012E0004D9145174111E1F759F4CD0101900020CE
:1012F00049F04D9140154111C9F3FB014111EFCF68
:1013000081E090E001970895AEE0B0E0EAE8F9E00E
:101310000C94330C0D891E8986E08C831A83098313
:101320008FEF9FE79E838D839E01275E3F4FCE0107
:1013300001966F89788DA9010E94A8092F813885AF
:10134000020F131FF80110822E96E4E00C944F0C4C
:10135000ABE0B0E0EEEAF9E00C94250C3C012B0187
:101360005A01FC0117821682838181FD03C06FEF51
:101370007FEFC6C19AE0892E1E010894211C311C02
:10138000F3012381F20123FD859123FF81912F0138
:10139000882309F4B2C1853239F423FD859123FFF6
:1013A00081912F01853229F490E0B3010E949B0BBB
:1013B000E7CF982FFF24EE249924FFE1FF15D0F00A
:1013C0009B3269F09C3228F4903259F0933291F4B8
:1013D0000EC09D3249F0903369F441E024C052E0E0
:1013E000F52A84E0F82A28C098E0F92A25C0E0E12F
:1013F000FE2A22C0F7FC29C0892F80538A3070F45E
:10140000F6FE05C0989C902C1124980E15C0E89CFF
:10141000E02C1124E80EF0E2FF2A0EC09E3229F4DF
:10142000F6FC6BC140E4F42A07C09C3619F450E87E
:10143000F52A02C0983649F4F20123FD959123FF65
:1014400091912F01992309F0B8CF892F85548330CA
:1014500018F08052833038F444E050E0A40EB51EFA
:101460005FE359830FC0933631F0933779F09335AA
:1014700009F056C020C0F5018081898342E050E028
:10148000A40EB51E610101E010E012C0F501C0809C
:10149000D180F6FC03C06FEF7FEF02C0692D70E0D2
:1014A00042E050E0A40EB51EC6010E94900B8C01D4
:1014B0005FE7F52214C0F501C080D180F6FC03C0BF
:1014C0006FEF7FEF02C0692D70E042E050E0A40EA4
:1014D000B51EC6010E94850B8C0150E8F52AF3FE6B
:1014E00007C01AC080E290E0B3010E949B0BEA940F
:1014F0008E2D90E008171907A8F30EC0F601F7FC2F
:101500008591F7FE81916F0190E0B3010E949B0BE2
:10151000E110EA94015010400115110579F7EAC075
:10152000943611F0993669F5F7FE08C0F50120816F
:1015300031814281538184E090E00AC0F5018081CD
:1015400091819C01442737FD4095542F82E090E023
:10155000A80EB91E9FE6F92257FF09C05095409585
:10156000309521953F4F4F4F5F4FE0E8FE2ACA016B
:10157000B901A1012AE030E00E94C70BD82ED21891
:1015800040C0953729F41F2D1F7E2AE030E01DC092
:101590001F2D197F9F3661F0903720F4983509F0A0
:1015A000ACC00FC0903739F0983709F0A6C004C01E
:1015B00028E030E00AC0106114FD146020E130E042
:1015C00004C014FD166020E132E017FF08C0F501E9
:1015D000608171818281938144E050E008C0F5010F
:1015E00080819181BC0180E090E042E050E0A40E57
:1015F000B51EA1010E94C70BD82ED2188FE7F82E76
:10160000F122F6FE0BC05EEFF522D91438F4F4FE99
:1016100007C0F2FC05C08FEEF82202C01D2D01C0EC
:10162000192DF4FE0DC0FE01ED0DF11D80818033FA
:1016300019F499EEF92208C01F5FF2FE05C003C03D
:101640008F2D867809F01F5F0F2DF3FC14C0F0FE7C
:101650000FC01E1510F09D2C0BC09D2C9E0C911AD6
:101660001E2D06C080E290E0B3010E949B0B1F5F1D
:101670001E15C0F304C01E1510F4E11A01C0EE24BB
:1016800004FF0FC080E390E0B3010E949B0B02FFB8
:101690001DC001FD03C088E790E00EC088E590E022
:1016A0000BC0802F867891F001FF02C08BE201C051
:1016B00080E2F7FC8DE290E0B3010E949B0B06C034
:1016C00080E390E0B3010E949B0B9A94D914C0F37D
:1016D000DA94F101ED0DF11D808190E0B3010E94DB
:1016E0009B0BDD20A9F706C080E290E0B3010E94C9
:1016F0009B0BEA94EE20C1F743CEF301668177811C
:10170000CB012B96E2E10C94410CFC010590615059
:1017100070400110D8F7809590958E0F9F1F089507
:10172000FC016150704001900110D8F780959095B0
:101730008E0F9F1F08950F931F93CF93DF938C01FC
:10174000EB018B8181FF1BC082FF0DC02E813F8189
:101750008C819D812817390764F4E881F981019310
:10176000F983E88306C0E885F985802F0995892BE0
:1017700031F48E819F8101969F838E8302C00FEF8B
:101780001FEFC801DF91CF911F910F910895FA01CA
:10179000AA27283051F1203181F1E8946F936E7FB0
:1017A0006E5F7F4F8F4F9F4FAF4FB1E03ED0B4E0A1
:1017B0003CD0670F781F891F9A1FA11D680F791FE2
:1017C0008A1F911DA11D6A0F711D811D911DA11DF3
:1017D00020D009F468943F912AE0269F1124301903
:1017E000305D3193DEF6CF010895462F4770405D9E
:1017F0004193B3E00FD0C9F7F6CF462F4F70405D4D
:101800004A3318F0495D31FD4052419302D0A9F7A7
:10181000EACFB4E0A6959795879577956795BA95A1
:10182000C9F700976105710508959B01AC010A2E67
:1018300006945795479537952795BA95C9F7620F3E
:10184000731F841F951FA01D08952F923F924F92E2
:101850005F926F927F928F929F92AF92BF92CF9240
:10186000DF92EF92FF920F931F93CF93DF93CDB749
:10187000DEB7CA1BDB0B0FB6F894DEBF0FBECDBFC1
:1018800009942A88398848885F846E847D848C8492
:101890009B84AA84B984C884DF80EE80FD800C819B
:1018A0001B81AA81B981CE0FD11D0FB6F894DEBF7E
:0C18B0000FBECDBFED010895F894FFCFEE
:1018BC00563D2025642000383630313532313631F2
:1018CC0030004154480038373635363936323438E2
:1018DC0000256300257325630052494E47004E4591
:1018EC00572043414C4C004154442B393125733B18
:1018FC000041542B434D47443D2564004F4B00534E
:10190C004D532064656C657465640041542B434DE4
:10191C0047523D256400202052656164696E672042
:10192C00534D53202020002B434D54493A006E65F3
:10193C007720534D53004F4E004F46460041542BD9
:10194C00434D47533D222B39310022002020536553
:10195C006E64696E6720534D53202020002B434D3D
:10196C0047533A200041542B434C49503D310041E0
:10197C00542B4353510041542B43494D49002B43A5
:10198C004D45204552524F523A004154453000418A
:10199C0054453100415400202020434845434B20FE
:1019AC0047534D202020200020202047534D2066F7
:1019BC006F756E6420202020004F70657261746911
:1019CC006F6E206661696C656400202020494E535F
:1019DC004552542053494D202020002020205349AB
:1019EC004D20666F756E6420202020002020204E34
:1019FC004F204E4554574F524B2020200047534DFB
:0E1A0C0020494E495449414C495A4544200056
:00000001FF
